:1000000002006602201E010A32646402AE5753DA0F
:10001000DF320002AE5D758F01220002AE639003F5
:100020005EE06016201513301F0690056F7410F007
:1000300090056FE0B410031291082202A6C60200D8
:1000400056000002ACDB000000000002ACEF000034
:1000500000000002AD03439708439702E4900BE8C9
:10006000F0220002000E78FFE4F6D8FD9000007F39
:10007000007E10E4F0A3DFFCDEFA75812B0200BBEA
:100080000280BBE493A3F8E493A34003F68001F25B
:1000900008DFF48029E493A3F85407240CC8C33381
:1000A000C4540F4420C8834004F456800146F6DF50
:1000B000E4800B010204081020408090996AE47EDD
:1000C000019360BCA3FF543F30E509541FFEE49345
:1000D000A360010ECF54C025E060A840B8E493A30C
:1000E000FAE493A3F8E493A3C8C582C8CAC583CA37
:1000F000F0A3C8C582C8CAC583CADFE9DEE780BEEF
:10010000900BF07411F0A3E4F0900BF0E0FEA3E08C
:10011000FFF5828E83E0900BCEF08F828E83A3E07A
:10012000900BCFF0900BF0A3E0F5828E83A3A3E0B9
:10013000900BD0F08F828E83A3A3A3E0900BD1F01D
:10014000900BF0A3E02404F582E43EF583E0900BED
:10015000D2F0EF2405F582E43EF583E0900BD3F076
:10016000900BF0A3E02406F582E43EF583E0900BCB
:10017000D4F0EF2407F582E43EF583E0900BD5F050
:1001800022EF93FE5407900BABF0EE131313541FA2
:10019000900BAAF0E0FFA3E0FE75F015A4247FF514
:1001A00082E43417F583E5822FF582E43583F58305
:1001B000E493900BAAF0E0FDEE75F015A424FDF594
:1001C00082E43417F583E5822DF582E43583F583E7
:1001D000E493FF900BABF0EFB40507EDB403037F9E
:1001E000012230160AEFB40306ED70037F0122EFFF
:1001F000B4050AEDB40106300B037F01227F002213
:10020000900BEFE0FFB4041BE4F0A37411F0A3E43F
:10021000F0900BF0E0FCA3E0F5828C83E0900BE71C
:1002200002042DEFB40607E4900BEF02042D900BAF
:10023000EFE064096003020429900BE9E07004A375
:10024000E0640660030202F1900BF07411F0A3E485
:10025000F0900BF0E0FEA3E0FFF5828E83E0B405A2
:1002600010A3E0B4750BE4900BEFF012AE1402048F
:1002700027900BF0E0FEA3E0F5828E83E0B4051A30
:10028000A3E0B4A515D24D900BF0A3E0F5828E83C8
:10029000A3A3E090056EF0020427900BF0E0FEA30C
:1002A000E0F5828E83E0FDB40513A3E0B45A0EC2DC
:1002B0004DE490056EF0D231D201020427ED6405C1
:1002C0006003020427900BBEF0900BBEE0FF900B82
:1002D000F0E0FCA3E02FF582E43CF583E0FE740837
:1002E0002FF8A606900BBEE004F0E0B408DB020491
:1002F00027C3900BEAE09408900BE9E094005003C8
:10030000020427900BE4E09408900BE3E094005083
:100310003E900BF07411F0A3E4F0900BBEF0900B44
:10032000BEE0FF900BF0E0FCA3E02FF582E43CF58B
:1003300083E0FE74082FF8A606900BBEE004F0E000
:10034000B408DB12ACB1900BE3E4F0A37408F0E462
:10035000900BBFF0900BF07411F0A3E4F0900BBE83
:10036000F0900BBEE0F9C394085040900BE4E024F9
:10037000F8FF900BE3E034FFFE900BF0E0FCA3E00D
:1003800029F582E43CF583E0FD74C32FF582740601
:100390003EF583EDF0900BE4E004F07006900BE383
:1003A000E004F0900BBEE004F080B6900BE3E0FEBA
:1003B000A3E0FF900BE9E06E7003A3E06F7056902E
:1003C0000BEFF0D22790069BF012A8727809E62472
:1003D000FDB4070050589003E475F003A4C58325CD
:1003E000F0C583730203F902040502040002040548
:1003F00002040502040502040712A083D242802EE3
:10040000E4F5B1800B8009D201D231E4900569F0A6
:10041000129827801912ACB1900BBFE004F0E0C332
:10042000948050030203548005E4900BEFF0539B3B
:10043000F043970422E4900BA7F0203B16900AE6C5
:10044000E0FF900331E0C39F501D20FD1A90035E32
:10045000E06014C3900351E09464900350E0940072
:100460005003020D408015300018C3900351E094F2
:1004700064900350E094005003020D4012ADA002BE
:100480000D39900192E09092E693FF900AEBE0D351
:100490009F4002EFF0900192E090931893FF900A32
:1004A000E8E0D39F4002EFF0900192E0FC900193CE
:1004B000E0FF900AE8E0F9900AEBE0FA20311F90A3
:1004C0000569E0B5041890056BE0B507119006B614
:1004D000E0B5010A900352E06A70030209E9C231F3
:1004E000900569E0B5040790056BE06F6016900514
:1004F00069ECF090056BEFF0D201C202E4FF12ACA0
:100500009B12ADA09006B6E0B50107900352E06AD9
:100510006017EC64016010EC6408600BEC64096027
:1005200006ECC394204002D2019006B6E9F0900395
:1005300052EAF0EC127971058F00059E0105AE02BA
:1005400005B70305C704062C050640060653070633
:10055000D40806E609079F0A07AF0B07BF0C085C23
:100560000D08D20E08E20F08F810090E1109241226
:10057000093A13095014087220087E21088A2208BB
:10058000962308A22408B22608C22D000009E920FB
:1005900001030209E9C201D202C24A0209E92001AB
:1005A000030209E9C201D20212AE380209E93001A0
:1005B0000312AE080207A530010312AE08900AEB41
:1005C000E09018850209DF30010512A56C80539078
:1005D00005B2E020E74C900AEAE090B4FE93FE54A6
:1005E00007900BA0F0EE131313541FA3F0E0FF24A9
:1005F00095F582E43401F583C083C082E0FE900B60
:10060000A0E0FD7401A805088002C333D8FCFD4EAC
:10061000D082D083F074022FF582E43400F583E0B9
:100620004DF0900AEBE09018800209DF300107C21C
:1006300001D2021210F2900AEBE090189E0209DF3C
:1006400030010612AD9A12A200900AEBE090188FCA
:100650000209DF30010312A56C9005B2E020E76AC1
:10066000900AEAE090B4FE93FE5407900BA0F0EEDF
:10067000131313541FA3F0E0FF24B3F582E43405F1
:10068000F583C083C082E0FE900BA0E0FD7401A85A
:1006900005088002C333D8FCFD4ED082D083F074AD
:1006A000352FF582E43403F583E04DF0900BA1E0A3
:1006B000FF2495F582E43401F583E04DF074022FB8
:1006C000F582E43400F583E04DF0900AEBE09018F9
:1006D0009E0209DF2001030209E9C201D202C24AD7
:1006E00012A35B0209E9300107C201D202127108AC
:1006F000900AEAE0FF90B4FE93F470030209E9EF78
:1007000093FE5407900BA0F0EE131313541FA3F0A5
:10071000E0FF900BA0E0FE75F015A4247FF582E4C5
:100720003417F583E5822FF582E43583F583E4936E
:10073000900BA2F0EE75F015A424FDF582E43417B9
:10074000F583E5822FF582E43583F583E493900BFE
:10075000A3F0900AEBE090188593FF900579E4F000
:10076000A3EFF09005B2E0900BA320E71EE0FF900E
:100770000BA2E0FDE4FB1262B1900BA3E0FF900B33
:10078000A2E0FD7B0112A70E0209E9E0900BA21284
:10079000A709900BA3E0900BA2125DFD0209E930BE
:1007A000010312AD2B900AEBE09018A80209DF308C
:1007B000010312AE08900AEBE09018940209DF30B2
:1007C000010312AD9A900AEAE0FF90B4FE93F47030
:1007D00003020852EF93FE5407900BA0F0EE1313A0
:1007E00013541FA3F0E0FF900BA0E0FE75F015A4DA
:1007F000247FF582E43417F583E5822FF582E43512
:1008000083F583E493900BA2F0EE75F015A424FD1C
:10081000F582E43417F583E5822FF582E43583F51C
:1008200083E493900BA3F09005B2E0900BA320E734
:1008300015E0900BA2126720900BA3E0FF900BA293
:10084000E0FD7B018009E0FF900BA2E0FDE4FB12DC
:10085000A70E900AEBE090187B0209DF300109C275
:1008600001D202C24A12A259900AEBE090189902F2
:1008700009DF2001030209E9C201E4FF802E200103
:10088000030209E9C2017F0180222001030209E974
:10089000C2017F0280162001030209E9C2017F0321
:1008A000800A2001030209E9C2017F0412295202D1
:1008B00009E92001030209E9C201D20212AD3102A5
:1008C00009E9300107C201D20212855D12962D029C
:1008D00009E930010312AD2B900AEBE09018A30256
:1008E00009DF300109C201D202C24A12A78D900A63
:1008F000EBE09018B70209DF300109C201D202C251
:100900004A12AE75900AEBE09018B20209DF30018E
:1009100009C201D202C24A12AE38900AEBE0901826
:10092000B20209DF300109C201D202C24A12AE404E
:10093000900AEBE09018A80209DF300109C201D249
:1009400002C24A12AE48900AEBE09018A80209DFF2
:1009500030010912A56C900B10E004F09005B2E094
:1009600020E775900B10E0C3941E4002E4F0900A5B
:10097000EAE090B4FE93FE5407900BA0F0EE131340
:1009800013541FA3F0E0FF24B3F582E43405F5838C
:10099000C083C082E0FE900BA0E0FD7401A80508B2
:1009A0008002C333D8FCFD4ED082D083F074352F43
:1009B000F582E43403F583E04DF0900BA1E0FF24D1
:1009C00095F582E43401F583E04DF074022FF58251
:1009D000E43400F583E04DF0900AEBE090189E932C
:1009E000FF900579E4F0A3EFF0200203020D4090A0
:1009F0000569E024DA7003020C0D2425B4140040CC
:100A000003020D40900A1275F003A4C58325F0C5BA
:100A10008373020A4E020A7A020A98020AB6020A8E
:100A2000E2020B0E020B2C020B58020B5B020B793D
:100A3000020BA5020BC3020BE1020C54020C800254
:100A40000C9E020CBD020CDB020CF7020D13C390CE
:100A50000351E09428900350E094005003020D40AD
:100A60009005B1E004F0E0D3940940037409F090DC
:100A700005B1E0FF125940020D39900579E0FEA35F
:100A8000E0FFC3900351E09F900350E09E500302AB
:100A90000D40126949020D39900579E0FEA3E0FF8F
:100AA000C3900351E09F900350E09E5003020D401D
:100AB000128872020D39900686E0D3940F4005E447
:100AC000F01253ED900579E0FEA3E0FFC3900351CF
:100AD000E09F900350E09E5003020D4012605702C9
:100AE0000D39900686E0D3940A4005E4F01253EDE8
:100AF000900579E0FEA3E0FFC3900351E09F9003CF
:100B000050E09E5003020D401294BE020D39900534
:100B100079E0FEA3E0FFC3900351E09F900350E013
:100B20009E5003020D40124CCF020D39900686E014
:100B3000D3940F4005E4F01253ED900579E0FEA345
:100B4000E0FFC3900351E09F900350E09E500302EA
:100B50000D40126057020D3902A682900579E0FE21
:100B6000A3E0FFC3900351E09F900350E09E500329
:100B7000020D40126D75020D39900686E0D3940F78
:100B80004005E4F01253ED900579E0FEA3E0FFC3C9
:100B9000900351E09F900350E09E5003020D4012DD
:100BA0008C51020D39900579E0FEA3E0FFC390035C
:100BB00051E09F900350E09E5003020D40122D82A1
:100BC000020D39900579E0FEA3E0FFC3900351E0E8
:100BD0009F900350E09E5003020D401253ED020D12
:100BE00039900686E0D394014005E4F01253ED906D
:100BF0000579E0FEA3E0FFC3900351E09F9003500E
:100C0000E09E5003020D40126057020D3990068697
:100C1000E0D3940A4005E4F01253EDC3900351E091
:100C2000940A900350E094005003020D4090019309
:100C30007407F0900AE87404F0900B95E0700F12BE
:100C4000ADA0900AF5E0900192F0D231C24B128C27
:100C500051020D39900686E0D3940F4005E4F0125E
:100C600053ED900579E0FEA3E0FFC3900351E09FB0
:100C7000900350E09E5003020D40123C9C020D393F
:100C8000900579E0FEA3E0FFC3900351E09F90033D
:100C900050E09E5003020D40127696020D399005E9
:100CA00079E0FEA3E0FFC3900351E09F900350E082
:100CB0009E5003020D40E4F0A3F0028443900579B6
:100CC000E0FEA3E0FFC3900351E09F900350E09E3D
:100CD000406EE4F0A3F07F09025940900579E0FEF0
:100CE000A3E0FFC3900351E09F900350E09E40506B
:100CF000E4F0A3F0028A6B900579E0FEA3E0FFC365
:100D0000900351E09F900350E09E4034E4F0A3F044
:100D1000026F7F900686E0D3940F4005E4F01253F3
:100D2000ED900579E0FEA3E0FFC3900351E09F90B2
:100D30000350E09E400A127B0FE4900350F0A3F0B2
:100D400022E4900BA0F0202209302C06302A030266
:100D50001062900AE5E024E070030210E82420B459
:100D6000130040030210F1900D6EF8282873020D55
:100D7000A7020DB0020DCF020DD5020DDE020DED62
:100D8000020E01020E0A020E13020E27020E3B0291
:100D90000E52020E66020F4602100E0210110210D1
:100DA0002002104402106E3035030210F102730469
:100DB0003035030210F1204D0E7B017A0A79ED7D6A
:100DC000011286700210EE900AE27401F0800C129B
:100DD0004352020D523035030210F102A9B6302DF4
:100DE000030210F13035030210F102A9DF302D03A8
:100DF0000210F13035030210F17B017A037959803A
:100E00004C3035030210F102A1A63035030210F177
:100E1000029781302D030210F13035030210F17B6F
:100E2000017A0379588026302D030210F130350302
:100E30000210F17B017A0379578012302D030210E2
:100E4000F13035030210F17B017A0379567D0302FC
:100E50008670302D030210F13035030210F1128D2F
:100E600042C24AC20022302D030210F13035030283
:100E700010F1C20090035AE0900192600AE02487CA
:100E8000F582E43403800FE025E0FFE433FE746B69
:100E90002FF58274033EF583E0540F900AE8F0903A
:100EA0000192E090931893FF900BA1F0900AE8E074
:100EB000D39F4008900BA1E0900AE8F0D24A7A0A4A
:100EC00079E8128669900AE8E06003B40413D21648
:100ED000900AE97406F0E4900AECF0900ACB740AE8
:100EE000F090035AE09001926026E02487F582E4B6
:100EF0003403F583E054F0FB900AE8E0FFEB4FFF8A
:100F0000900192E02487F582E43403F583EFF02228
:100F1000E025E0FFE433FE746B2FF58274033EF5A9
:100F200083E054F0FB900AE8E0FFEB4FFFAD079041
:100F30000192E025E0FFE433FE746B2FF582740329
:100F40003EF583EDF022302D030210F1303503021F
:100F500010F1900192E0FB640170030210F1900324
:100F60005AE060030210F1C200EB25E0FFE433FE1B
:100F7000746B2FF58274033EF583E05470FFE4FC3C
:100F8000FDFE7804127941900AEBEFF0EB9092E6C7
:100F900093FF900AEBE0D39F4002EFF07B017A0AC7
:100FA00079EB900192E09092E693FD1286709001A9
:100FB00092E025E0FFE433FE746B2FF58274033E6C
:100FC000F583E0548FFFE4AB07900AEBE075F01077
:100FD000A4FFEB4FFFAD07900192E025E0FFE43363
:100FE000FE746B2FF58274033EF583EDF0900AEBEF
:100FF000E06007640460030210F1D216900AE974FD
:1010000006F0E4900AECF0900ACB740AF022023465
:10101000F8302D030210F13035030210F102AB63FA
:10102000302D030210F13026030210F1900AE2E0A5
:10103000FF900329E0B50708302A0520220280220C
:10104000C2128027302D030210F13026030210F166
:10105000900AE2E0FF900329E0B5070F302A0C2048
:101060002209C22AC22CD22BD21F22029F41302D2C
:10107000030210F120357A202277900192E0FF647C
:1010800003606EEF640F6069EF64106064EF6411D9
:10109000605FE0FD25E0FFE433FE746A2FF58274A3
:1010A000033EF583E0900193F0ED90929093FF90D2
:1010B0000BA1F0900193E0D39F4008900BA1E0902A
:1010C0000193F0C24A7A017993128669900193E004
:1010D000FD900192E025E0FFE433FE746A2FF58273
:1010E00074033EF583EDF022204B0612A4DB12AB15
:1010F00029227F15900AF874FFF0A3DFFC02ADA04F
:10110000000000000000000000030B151E0000009E
:101110000000FF000000FF000000FFFFFF00FF00D5
:10112000FF00FFFFFFFFFF0000003BFFFFFFFFFF8F
:10113000FFFFFFFF423A33433C44FFFFFFFF3941CB
:10114000494A322B4B344CFF312A232C2D51525318
:10115000544529221B24595A5B5C4D63211A131CE8
:1011600061626B6C645519120B1415696A6D5DFF31
:10117000110A03040D718182650C09010205FF79D2
:101180007AFF72FF016DFFFFFF09026C556B110AB8
:101190004D64FF19124D5C5B211A455453292245B9
:1011A0005453312A4B4CFF39324443FF41423C33C4
:1011B000FF333A4443FF3A42443CFF42433C33FF4F
:1011C0004344333AFF3C42FFFFFF3343FFFFFF3A04
:1011D00044FFFFFF423CFFFFFF3BFFFFFFFF3BFFE2
:1011E000FFFFFF16181B1E2124272A2D3135393DFC
:1011F0004145494D5155595E63686D72777C8186D2
:101200008C92989EA4AAB0B6BCC2C8CED5DCE3EA44
:10121000F1F8FFFFF8F1EAE3DCD5CEC8C2BCB6B006
:10122000AAA49E98928C86817C77726D68635E59C1
:1012300055514D4945413D3935312D2A2724211E2F
:101240001B1816000102030405060708090A0C0E04
:1012500010121416181B1E2124272A2D3135393D52
:101260004145494D5155595E63686D72777C818661
:101270008C92989EA4AAB0B6BCC2C8CED5DCE3EAD4
:10128000F1F8FFFFF8F1EAE3DCD5CEC8C2BCB6B096
:10129000AAA49E98928C86817C77726D68635E5951
:1012A00055514D4945413D3935312D2A2724211EBF
:1012B0001B18161412100E0C0A0908070605040361
:1012C000020100010101BFBFBF060606BEBEBE0B84
:1012D0000B0BBCBCBC101010B9B9B9151515B4B4C2
:1012E000B41A1A1AAFAFAF1F1F1FAAAAAA24242428
:1012F000A5A5A5292929A0A0A02E2E2E9B9B9B3316
:1013000033339696963838389191913D3D3D8C8C8B
:101310008C4242428787874747478282824C4C4CA7
:101320007D7D7D5151517878785656567474745A33
:101330005A5A7070705F5F5F6C6C6C636363676751
:10134000670000005454540707074D4D4D0E0E0E14
:101350004646461515153F3F3F1C1C1C38383823A0
:1013600023233131312A2A2A2A2A2A3131312323CF
:10137000233838381C1C1C3F3F3F15151546464680
:101380000E0E0E4D4D4D0707075454545F5F5F5BC3
:101390005B5B5B5B5B5F5F5F5454540000004D4DD3
:1013A0004D0707074646460E0E0E3F3F3F151515E3
:1013B0003838381C1C1C3131312323232A2A2AFFB8
:1013C0000100FF0300FF0500FF0700FF0A00FF0EFA
:1013D00000FF1200FF1600FF1A00FF2000FF26008A
:1013E000FF2C00FF3200FF3900FF4100FF4900FFE2
:1013F0005100FF5900FF6300FF6D00FF7700FF8180
:1014000000FF8C00FF9800FFA400FFB000FFBC00AD
:10141000FFC800FFD500FFE300FFF100FFFF00F869
:10142000FF00EAFF00DCFF00CEFF00C2FF00B6FFB6
:1014300000AAFF009EFF0092FF0086FF007CFF00D5
:1014400072FF0068FF005EFF0055FF004DFF004582
:10145000FF003DFF0035FF002FFF0029FF0023FFA5
:10146000001DFF0018FF0014FF0010FF000CFF001C
:1014700008FF0006FF0004FF0002FF0000FF00005D
:10148000FF0100FF0300FF0500FF0700FF0A00FF48
:101490000E00FF1200FF1600FF1A00FF2000FF26BB
:1014A00000FF2C00FF3200FF3900FF4100FF490020
:1014B000FF5100FF5900FF6300FF6D00FF7700FF41
:1014C0008100FF8C00FF9800FFA400FFB000FFBC6C
:1014D00000FFC800FFD500FFE300FFF100FFFF00A1
:1014E000F8FF00EAFF00DCFF00CEFF00C2FF00B6FD
:1014F000FF00AAFF009EFF0092FF0086FF007CFF16
:101500000072FF0068FF005EFF0055FF004DFF0006
:1015100045FF003DFF0035FF002FFF0029FF00239E
:10152000FF001DFF0018FF0014FF0010FF000CFF5C
:101530000008FF0006FF0004FF0002FF0000FF019B
:1015400000FF0300FF0500FF0700FF0A00FF0E0079
:10155000FF1200FF1600FF1A00FF2000FF2600FF09
:101560002C00FF3200FF3900FF4100FF4900FF510E
:1015700000FF5900FF6300FF6D00FF7700FF81004F
:10158000FF8C00FF9800FFA400FFB000FFBC00FF2D
:10159000C800FFD500FFE300FFF100FFFF00FFFFE1
:1015A00000F8FF00EAFF00DCFF00CEFF00C2FF00F2
:1015B000B6FF00AAFF009EFF0092FF0086FF007C9E
:1015C000FF0072FF0068FF005EFF0055FF004DFF47
:1015D0000045FF003DFF0035FF002FFF0029FF0001
:1015E00023FF001DFF0018FF0014FF0010FF000C78
:1015F000FF0008FF0006FF0004FF0002FF000000DC
:1016000005FF0011FF001DFF0030FF0041FF0055E6
:10161000FF0069FF007FFF0089FF0094FF00A1FF2A
:1016200000ABFF00B6FF00C0FF00CAFF00D3FF0001
:10163000DCFF00E5FF00EDFF00F3FF00FAFF00FF15
:10164000FF00FFFA00FFF600FFEE00FFE700FFDFFC
:1016500000FFD600FFCD00FFC300FFBA00FFAF00C0
:10166000FFA500FF9900FF8F00FF8200FF7200FFBF
:101670005D00FF4900FF3600FF2500FF1500FF0851
:1016800000FF000BFF0016FF0024FF0034FF0046A0
:10169000FF0057FF006AFF007EFF0088FF0090FFF9
:1016A0000098FF009FFF00A8FF00B0FF00B7FF00F9
:1016B000C0FF00C6FF00CEFF00D4FF00DCFF00E14A
:1016C000FF00E7FF00EDFF00F3FF00F7FF00FBFF67
:1016D00000FFFF00FFF900FFF200FFEC00FFE10058
:1016E000FFD700FFCE00FFC300FFB700FFAA00FF37
:1016F0009F00FF9100FF8400FF6900FF4400FF226C
:1017000000FF0A00FF0005FF0011FF001EFF00326E
:10171000FF0045FF005BFF0071FF0083FF008EFFAD
:10172000009BFF00A5FF00B1FF00BDFF00C7FF0049
:10173000D1FF00DBFF00E5FF00ECFF00F3FF00FA44
:10174000FF00FFFA00FFF300FFED00FFE400FFDC05
:1017500000FFD100FFC800FFBD00FFB200FFA800DE
:10176000FF9E00FF8F00FF8300FF6F00FF5A00FF06
:101770004500FF3200FF1F00FF1000FF0500FF00C3
:101780001602030405060708090A0B0C0D0E0F10BC
:1017900011121314000102030405060708090A0BBD
:1017A0000C0D0E0F10111213140001020304050694
:1017B0000708090A0B0C0D0E0F101112131400016B
:1017C00002030405060708090A0B0C0D0E0F101181
:1017D000121314000C0102030405060708090A0B82
:1017E0000D0E0F1011121314000102030405060759
:1017F00008090A0B0C0D0E0F101112131400000033
:1018000000000000000000000000000000000000D8
:1018100000000101010101010101010101010101BA
:10182000010101010101010202020202020202029F
:101830000202020202020202020202020303030384
:101840000303030303030303030303030303030368
:101850000304040404040404040404040404040449
:10186000040404040404050505050505050505052E
:101870000505050505050505050505554637280F28
:101880006E5F5032147364553C1E55463728192834
:101890001E0F05011E18120C06BEA08264466E5F64
:1018A0005032145546372D2355463728197D6E5D25
:1018B00048333C2D1E150C554637281900000000F2
:1018C0000000000000000000000000000000000018
:1018D0000000000000000000000000000000000008
:1018E00000000000000000000000000000000000F8
:1018F00000000000000000000000000000000000E8
:1019000000000000000000000000000000000000D7
:1019100000000000000000000000000000000000C7
:1019200000000000000000000000000000000000B7
:1019300000000000000000000000000000000000A7
:101940000000000000000000000000000000000097
:101950000000000000000000000000000000000087
:10196000000000000000FF00000000000000000078
:1019700000000000000000000000FFFFFF0000006A
:101980000000000000000000000000000000000057
:101990000000000000000000000000000000000047
:1019A0000000000000000000000000000000000037
:1019B0000000000000000000000000000000000027
:1019C0000000000000000000000000000000000017
:1019D0000000000000000000000000000000000007
:1019E00000000000000000000000000000000000F7
:1019F00000000000000000000000000000000000E7
:101A000000000000000000000000000000000000D6
:101A100000000000000000000000000000000000C6
:101A200000000000000000000000000000000000B6
:101A300000000000000000000000000000000000A6
:101A40000000000000000000000000000000000096
:101A50000000000000000000000000000000000086
:101A60000000000000000000000000000000000076
:101A70000000000000000000000000000000000066
:101A80000000000000000000000000000000000056
:101A90000000000000000000000000000000000046
:101AA0000000000000000000000000000000000036
:101AB0000000000000000000000000000000000026
:101AC0000000000000000000000000000000000016
:101AD0000000000000000000000000000000000006
:101AE00000000000000000000000000000000000F6
:101AF00000000000000000000000000000000000E6
:101B000000000000000000000000000000000000D5
:101B100000000000000000000000000000000000C5
:101B200000000000000000000000000000000000B5
:101B300000000000FFFFFF000000000000000000A8
:101B400000FF000000000000FFFFFFFFFF0000009B
:101B500000000000000000FFFF000000FFFFFFFF8B
:101B6000FF0000000000000000000000FFFF000078
:101B70000000FFFFFF00FF00000000000000000069
:101B8000000000000000FF0000000000FF00000057
:101B90000000000000000000000000FF00FF000047
:101BA000FF00000000000000000000000000000036
:101BB0000000000000000000000000000000000025
:101BC0000000000000000000000000000000000015
:101BD0000000000000000000000000000000000005
:101BE00000000000000000000000000000000000F5
:101BF00000000000000000000000000000000000E5
:101C000000000000000000000000000000000000D4
:101C100000000000000000000000000000000000C4
:101C200000000000000000000000000000000000B4
:101C300000000000000000000000000000000000A4
:101C40000000000000000000000000000000000094
:101C50000000000000000000000000000000000084
:101C60000000000000000000000000000000000074
:101C70000000000000000000000000000000000064
:101C80000000000000000000000000000000000054
:101C90000000000000000000000000000000000044
:101CA0000000000000000000000000000000000034
:101CB0000000000000000000000000000000000024
:101CC0000000FFFFFFFFFFFFFF000000000000001B
:101CD00000000000000000FFFFFFFFFF0000000009
:101CE000000000000000000000000000FFFFFFFFF8
:101CF000FF000000000000000000000000000000E5
:101D0000FF000000FFFF00000000000000000000D6
:101D10000000000000FF00000000000000000000C4
:101D200000000000000000000000000000000000B3
:101D300000000000000000000000000000000000A3
:101D40000000000000000000000000000000000093
:101D50000000000000000000000000000000000083
:101D60000000000000000000000000000000000073
:101D70000000000000000000000000000000000063
:101D80000000000000000000000000000000000053
:101D90000000000000000000000000000000000043
:101DA0000000000000000000000000000000000033
:101DB0000000000000000000000000000000000023
:101DC0000000000000000000000000000000000013
:101DD0000000000000000000000000000000000003
:101DE00000000000000000000000000000000000F3
:101DF00000000000000000000000000000000000E3
:101E000000000000000000000000000000000000D2
:101E100000000000000000000000000000000000C2
:101E200000000000000000000000000000000000B2
:101E3000000000000000000000000000FFFFFFFFA6
:101E4000FFFFFF0000000000000000000000000095
:101E500000FFFFFFFF000000000000000000000086
:101E6000000000000000FFFFFFFF00000000000076
:101E70000000000000000000000000000000000062
:101E80000000000000000000000000000000000052
:101E90000000000000000000000000000000000042
:101EA0000000000000000000000000000000000032
:101EB0000000000000000000000000000000000022
:101EC0000000000000000000000000000000000012
:101ED0000000000000000000000000000000000002
:101EE00000000000000000000000000000000000F2
:101EF00000000000000000000000000000000000E2
:101F000000000000000000000000000000000000D1
:101F100000000000000000000000000000000000C1
:101F200000000000000000000000000000000000B1
:101F300000000000000000000000000000000000A1
:101F40000000000000000000000000000000000091
:101F50000000000000000000000000000000000081
:101F60000000000000000000000000000000000071
:101F70000000000000000000000000000000000061
:101F80000000000000000000000000000000000051
:101F90000000000000000000000000000000000041
:101FA0000000000000000000000000000000000031
:101FB0000000000000000000000000000000000021
:101FC000000000000000000000000000FF00FF0013
:101FD0000000000000000000000000000000000001
:101FE000FFFFFF00000000000000000000000000F4
:101FF00000000000FF0000000000000000000000E2
:1020000000000000FF00000000FF00FF00000000D3
:102010000000000000000000FFFFFF000000C0E023
:10202000C0F0C083C082C0D075D000C000C001C065
:1020300002C003C004C005C006C007C2CF204C03C5
:1020400002231712ADAC5380E353B084C28F75C026
:102050000012A872900355E004F0E0C3941240040B
:10206000E4F0C24C900355E0FF75F00384FEEF7579
:10207000F00384AFF075C30075F003EEA424ACF553
:1020800082E5F03401F583E5822FF582E43583F5AE
:1020900083E0F5CE75C40075F003EEA424BEF5828E
:1020A000E5F03401F583E5822FF582E43583F5838D
:1020B000E0F5C175C50075F003EEA424D0F582E506
:1020C000F03401F583E5822FF582E43583F583E072
:1020D000F5C290FFEDE4F075F003EEA424E2F58282
:1020E000E5F03401F583E5822FF582E43583F5834D
:1020F000E090FFD5F090FFECE4F075F003EEA4243F
:10210000F4F582E5F03401F583E5822FF582E435BC
:1021100083F583E090FFD4F090FFEBE4F075F003DB
:10212000EEA42406F582E5F03402F583E5822FF56E
:1021300082E43583F583E090FFD3F090FFEAE4F08A
:1021400075F003EEA42418F582E5F03402F583E57A
:10215000822FF582E43583F583E090FFD2F090FF83
:10216000E9E4F075F003EEA4242AF582E5F03402E8
:10217000F583E5822FF582E43583F583E090FFD186
:10218000F090FFE8E4F075F003EEA4243CF582E55E
:10219000F03402F583E5822FF582E43583F583E0A0
:1021A00090FFD0F090FFF3E4F075F003EEA4244E1E
:1021B000F582E5F03402F583E5822FF582E435837C
:1021C000F583E090FFDBF090FFF2E4F075F003EEB2
:1021D000A42460F582E5F03402F583E5822FF582D0
:1021E000E43583F583E090FFDAF090FFF1E4F075D9
:1021F000F003EEA42472F582E5F03402F583E58263
:102200002FF582E43583F583E090FFD9F090FFF05D
:10221000E4F075F003EEA42484F582E5F03402F5D1
:1022200083E5822FF582E43583F583E090FFD8F0D3
:1022300090FFEFE4F075F003EEA42496F582E5F04C
:102240003402F583E5822FF582E43583F583E0904F
:10225000FFD7F090FFEEE4F075F003EEA424A8F5AC
:1022600082E5F03402F583E5822FF582E43583F5CB
:1022700083E090FFD6F090FFF9E4F075F003EEA450
:1022800024BAF582E5F03402F583E5822FF582E485
:102290003583F583E090FFE1F090FFF8E4F075F00E
:1022A00003EEA424CCF582E5F03402F583E5822F19
:1022B000F582E43583F583E090FFE0F0303E0302E1
:1022C000244F30270302244F900355E0FF90A3F8DA
:1022D00093FE7009EF90A40A9342808034EEB40418
:1022E0000C900355E090A40A9342B08024900355CB
:1022F000E0FF90A3F893FEB40509EF90A40A93427F
:1023000088800EEEB4060A900355E090A40A93422A
:10231000C012A3AA02244FD24C12ADBD5380E35386
:10232000B084C28F75C00053EACF53E2CF53EBC0E5
:1023300053E3C053ECC053E4C053EEF853E6F81235
:10234000A87243E23043903043E33F43983F43E475
:102350003F43A03F43E6074388075380E353B084DD
:10236000C28F75C000900BBDE4F0900BBDE0FFC3C1
:1023700094114003022437EF90A41C93FFB4010D85
:10238000900BBDE090A43193F452908037EFB402EB
:102390000D900BBDE090A43193F452988026900BE1
:1023A000BDE0FF90A41C93FEB4030AEF90A4319308
:1023B000F452A0800FEEB4050B900BBDE090A43159
:1023C00093F4528843D90F43EE187F017E0012A682
:1023D0000EE58825E05430FFE5F8540F4F44C190D6
:1023E0000BBCF07F027E0012A60EE58825E054307B
:1023F000FFE5F8540F4F44C1FF53D9F053EEE79077
:102400000BBCE0FEB5070FA3E0249CF582E4340684
:10241000F583EEF0D22043E23043903043E33F4374
:10242000983F43E43F43A03F43E607438807900BB0
:10243000BDE004F002236A53EACF53E2CF53EBC06E
:1024400053E3C053ECC053E4C053EEF853E6F890A6
:102450000351E004F07006900350E004F09006860B
:10246000E004F09005C9E004F0900353E004F0901C
:10247000056AE004F0900327E004F070069003265C
:10248000E004F030271090069BE004F0E0D394FACB
:102490004004E4F0C227900353E0D394024053E495
:1024A000F030262390032EE06003E014F090032E1A
:1024B000E0703F90032DE0A3F0900328E0C3947FE9
:1024C0005030E004F0802B90032EE06003E014F025
:1024D00090032EE0701C90032DE0A3F0A3E07002A7
:1024E000A3E0600E900330E024FFF090032FE0346F
:1024F000FFF09001ABE0600214F0D007D006D005E9
:10250000D004D003D002D001D000D0D0D082D0836C
:10251000D0F0D0E032900BD3E0703D900BD2E07061
:1025200037900BD0E07031A3E06402702B900BD495
:10253000E0FF7024539BF0EF429B900BF07411F07E
:10254000A37408F0900BE7E0FF900BF0E0FAA3E033
:10255000F5828A83EF022632900BD0E0FF6405609B
:1025600003022636A3E064036003022636A3E06478
:10257000016003022636539BF0900BD4E0429B90FF
:102580000BF07411F0A37408F0900BF0E475F001F7
:1025900012791885F082F5837405F0900BF0E475DC
:1025A000F00112791885F082F5837401F0905D7462
:1025B000E493FE900BF0E475F00112791885F08237
:1025C000F583EEF0905D75E493FE900BF0E475F00A
:1025D0000112791885F082F583EEF0905D76E49330
:1025E000FE900BF0E475F00112791885F082F58306
:1025F000EEF0905D77E493FE900BF0E475F001123D
:10260000791885F082F583EEF0905D78E493FE9082
:102610000BF0E475F00112791885F082F583EEF085
:10262000905D79E493FE900BF0E0FAA3E0F5828AE6
:1026300083EEF002294AEF6406600302294E900BF4
:10264000D1E06403600302294EA3E0640160030249
:10265000294E539BF0900BD4E0429B900BF07411E9
:10266000F0A37408F0900BF0E475F001127918856E
:10267000F082F5837406F07809E6247DB407004003
:102680000302294A90269275F003A4C58325F0C55C
:1026900083730226A70227230227B40228060228F2
:1026A000580228AA0228FB7809E6FF900BF0E4758F
:1026B000F00112791885F082F583EFF0780AE6FFD1
:1026C000900BF0E475F00112791885F082F583EF34
:1026D000F0780BE6FF900BF0E475F00112791885A5
:1026E000F082F583EFF0D250900BEF7401F0780A8E
:1026F000E6FE08E6FBEBFF900BEBEEF0A3EFF090AD
:102700000BE0E4F0A374FEF0E4FD900BF0E475F050
:102710000112791885F082F583E4F00DEDB404EA36
:1027200002294A7809E6FF900BF0E475F00112796E
:102730001885F082F583EFF0780AE6FF900BF0E45D
:1027400075F00112791885F082F583EFF0780BE6C9
:10275000FF900BF0E475F00112791885F082F58393
:10276000EFF0780AE6FE08E6FDEDFF900BEBEEF0E9
:10277000A3EFF0900BE07404F0A3E4F07809E6FF17
:10278000900BF0E475F00112791885F082F583EF73
:10279000F0900BEF7401F0C250E4FD900BF0E47583
:1027A000F00112791885F082F583E4F00DEDB404A0
:1027B000EA02294A780AE6FE08E6FDEDFF900BEBF7
:1027C000EEF0A3EFF0900BE07404F0A3E4F07809CE
:1027D000E6FF900BF0E475F00112791885F082F5B0
:1027E00083EFF0900BEF7401F0C250E4FD900BF01A
:1027F000E475F00112791885F082F583E4F00DEDAF
:10280000B406EA02294A780AE6FE08E6FDEDFF90E2
:102810000BEBEEF0A3EFF0900BE07404F0A3E4F008
:102820007809E6FF900BF0E475F00112791885F055
:1028300082F583EFF0900BEF7401F0C250E4FD904D
:102840000BF0E475F00112791885F082F583E4F05D
:102850000DEDB406EA02294A780AE6FE08E6FDED27
:10286000FF900BEBEEF0A3EFF0900BE07404F0A3FD
:10287000E4F07809E6FF900BF0E475F001127918A6
:1028800085F082F583EFF0900BEF7401F0C250E415
:10289000FD900BF0E475F00112791885F082F58354
:1028A000E4F00DEDB406EA02294A780AE6FE08E6ED
:1028B000FDEDFF900BEBEEF0A3EFF0900BE0740456
:1028C000F0A3E4F07809E6FF900BF0E475F0011254
:1028D000791885F082F583EFF0900BEF7401F0C268
:1028E00050E4FD900BF0E475F00112791885F08248
:1028F000F583E4F00DEDB406EA804F780AE6FE08B1
:10290000E6FDEDFF900BEBEEF0A3EFF0900BE07423
:1029100004F0A3E4F07809E6FF900BF0E475F00111
:1029200012791885F082F583EFF0900BEF7401F0C7
:10293000C250E4FD900BF0E475F00112791885F0B7
:1029400082F583E4F00DEDB406EA4397042212AD5C
:10295000DE22900BA8EFF0C20512ADA0E4900BA907
:10296000F0E4900BAAF0900BAAE0FFC3941540038B
:10297000022D72900BA8E0FE7069900BAAE0FD900A
:102980000BA9E0FC75F015A42400F582E5F034BC39
:10299000F583E5822DF582E43583F583E493FB909E
:1029A0000BADE4F0A3EBF075F015ECA4247EF582FA
:1029B000E5F034BCF583E5822DF582E43583F583BB
:1029C000E493FD900BAFE4F0A3EDF0900BA9E0755C
:1029D000F015A424FCF582E5F034BCF583E5822FE4
:1029E000022AC0EE64017069900BAAE0FF900BA967
:1029F000E0FE75F015A4247AF582E5F034BDF58388
:102A0000E5822FF582E43583F583E493FD900BADE9
:102A1000E4F0A3EDF075F015EEA424F8F582E5F0EE
:102A200034BDF583E5822FF582E43583F583E493A5
:102A3000FF900BAFE4F0A3EFF0900BAAE0FF900B38
:102A4000A9E075F015A42476F582E5F034BE022BDA
:102A5000B3900BA8E0FF6402707B900BAAE0FE909D
:102A60000BA9E0FD75F015A424F4F582E5F034BE61
:102A7000F583E5822EF582E43583F583E493FB90BC
:102A80000BADE4F0A3EBF075F015EDA42472F58224
:102A9000E5F034BFF583E5822EF582E43583F583D6
:102AA000E493FD900BAFE4F0A3EDF0900BA9E0757B
:102AB000F015A424F0F582E5F034BFF583E5822E0D
:102AC000F582E43583F583E493FD900BB1E4F0A344
:102AD000EDF0022BCAEF64037068900BAAE0FF9040
:102AE0000BA9E0FE75F015A4246EF582E5F034C064
:102AF000F583E5822FF582E43583F583E493FD9039
:102B00000BADE4F0A3EDF075F015EEA424ECF58226
:102B1000E5F034C0F583E5822FF582E43583F58353
:102B2000E493FF900BAFE4F0A3EFF0900BAAE0FF6B
:102B3000900BA9E075F015A4246AF582E5F034C184
:102B40008071900BA8E064046003022BCA900BAA6A
:102B5000E0FF900BA9E0FE75F015A424E8F582E5EE
:102B6000F034C1F583E5822FF582E43583F583E403
:102B700093FD900BADE4F0A3EDF075F015EEA424F9
:102B800066F582E5F034C2F583E5822FF582E435FF
:102B900083F583E493FF900BAFE4F0A3EFF0900B89
:102BA000AAE0FF900BA9E075F015A424E4F582E5F6
:102BB000F034C2F583E5822FF582E43583F583E4B2
:102BC00093FF900BB1E4F0A3EFF0900AE8E09011CE
:102BD0000893FB900BB1E0FCA3E0FDAF037E001275
:102BE000789B7C007D1E1278AD900BB1EEF0A3EFC8
:102BF000F0900BAFE0FCA3E0FDAF037E0012789BEA
:102C00007C007D1E1278AD900BAFEEF0A3EFF0903C
:102C10000AE8E090110893FF7E00900BADE0FCA362
:102C2000E0FD12789B7C007D1E1278AD900BADEE1E
:102C3000F0A3EFF0900BAAE0FF900BA9E0FE75F077
:102C400015A4247FF582E43417F583E5822FF582FD
:102C5000E43583F583E493FCC394154003022D69A6
:102C6000EE75F015A424FDF582E43417F583E582B2
:102C70002FF582E43583F583E493FF900BB3F0AD39
:102C8000041201D7EF7071900BADA3E0FF75F01245
:102C9000ECA424ACF582E5F03401F583C083C08256
:102CA000900BB3E0FED082D08375F003127965EF0C
:102CB000F0900BAFA3E0FF75F012ECA424ADF58209
:102CC000E5F03401F58375F003EE127965EFF090CD
:102CD0000BB1A3E0FF75F012ECA424AEF582E5F091
:102CE0003401F583C083C082900BB3E0D082D083DF
:102CF00075F003127965EFF0900BADA3E0FF75F06E
:102D000012ECA424EFF582E5F03403F583C083C010
:102D100082900BB3E0FED082D08375F00312796508
:102D2000EFF0900BAFA3E0FF75F012ECA424F0F5E8
:102D300082E5F03403F58375F003EE127965EFF068
:102D4000900BB1A3E0FF75F012ECA424F1F582E53D
:102D5000F03403F583C083C082900BB3E0D082D0FF
:102D60008375F003127965EFF0900BAAE004F0028E
:102D70002966900BA9E004F0E0C3940650030229F1
:102D80006122E4900BAEF0900193E06407600302CF
:102D90002EEB7FC012A5B2900BAEEFF0E4900BA823
:102DA000F0900BAEE0FF75F003A424BFF582E5F0D0
:102DB0003413F583E493900194F075F003EFA424A9
:102DC000C0F582E5F03413F583E493900001F090B0
:102DD0000BAE129D54900BAEE02405F0E0C394C0FE
:102DE0004004E02440F0E4900BA9F0900BA9E0FF30
:102DF000C394064003022EDB900BA8E075F006A4F6
:102E0000FEEF2E900BAAF0E090B57C93F4700302D5
:102E10002ED2900BA8E0FFA3E0FE75F015A4247F4E
:102E2000F582E43417F583E5822FF582E43583F5E6
:102E300083E493FD900BACF0EE75F015A424FDF542
:102E400082E43417F583E5822FF582E43583F58338
:102E5000E493FF900BADF01201D7EF7075900194E1
:102E6000E0FF900BACE0FE75F012A424ACF582E517
:102E7000F03401F583C083C082900BADE0FDD082B9
:102E8000D08375F003127965EFF0900001E0FF75D3
:102E9000F012EEA424ADF582E5F03401F58375F06F
:102EA00003ED127965EFF0900AF6E0FF900BACE0CD
:102EB00075F012A424AEF582E5F03401F583C083E9
:102EC000C082900BADE0D082D08375F0031279659B
:102ED000EFF0900BA9E004F0022DEB900BA8E004BA
:102EE000F0E0C394155003022DA1227F6012A5B219
:102EF000900BAEEFF0E4900BA8F0900AEDE0FF75B8
:102F0000F0F8A42400F582E5F034B8F583EF2583CA
:102F1000F583C083C082900569E0FFD082D08375BD
:102F2000F015127965C083C082900193E0FED082D3
:102F3000D08375F003127965E493900194F0900AC0
:102F4000EDE0FD75F0F8A42401F582E5F034B8F564
:102F500083ED2583F58375F015EF12796575F00320
:102F6000EE127965E493900001F0900AEDE0FF75B0
:102F7000F0F8A42402F582E5F034B8F583EF258358
:102F8000F583C083C082900569E0D082D08375F05C
:102F900015127965C083C082900193E0D082D083FE
:102FA00075F003127965E493900AF6F0900BAEE0A9
:102FB0009011E393FF7E007DFF7C00129D78129DAF
:102FC00069900BAEE0240AF0E0C394604004E02472
:102FD000A0F0E4900BA9F0900BA9E0FFC394064089
:102FE000030230D9900BA8E075F006A4FEEF2E90F6
:102FF0000BAAF0E0FF90B57C93F470030230D0EFA1
:1030000093FE5407900BADF0EE131313541F900B67
:10301000ACF0E0FFA3E0FE75F015A4247FF582E498
:103020003417F583E5822FF582E43583F583E49345
:10303000900BACF0E0FDEE75F015A424FDF582E4F4
:103040003417F583E5822DF582E43583F583E49327
:10305000FF900BADF01201D7EF7075900194E0FF77
:10306000900BACE0FE75F012A424ACF582E5F034D0
:1030700001F583C083C082900BADE0FDD082D08388
:1030800075F003127965EFF0900001E0FF75F01222
:10309000EEA424ADF582E5F03401F58375F003ED7F
:1030A000127965EFF0900AF6E0FF900BACE075F056
:1030B00012A424AEF582E5F03401F583C083C0820A
:1030C000900BADE0D082D08375F003127965EFF0FC
:1030D000900BA9E004F0022FD7900BA8E004F0E0D9
:1030E000C394155003022EFA22900BF274AAF0A397
:1030F0007401F0A37404F0900BF3E0FF028E300033
:103100000000000000000000FF000000FF000000C1
:10311000FFFFFF00FF00FF00FFFFFFFFFFFF0000BA
:1031200000FF000000FFFFFF00FF00FF00FFFFFFA8
:10313000FFFFFF000000FF000000FFFFFF00FF0097
:10314000FF00FFFFFFFFFFFF000000FF000000FF88
:10315000FFFF00FF00FF00FFFFFFFFFFFF00000079
:10316000FF000000FFFFFF00FF00FF00FFFFFFFF69
:10317000FFFF000000FF000000FFFFFF00FF00FF57
:1031800000FFFFFFFFFFFF000000FF000000FFFF48
:10319000FF00FF00FF00FFFFFFFFFFFF000000FF39
:1031A000000000FFFFFF00FF00FF00FFFFFFFFFF29
:1031B000FF000000FF000000FFFFFF00FF00FF0016
:1031C000FFFFFFFFFFFF000000FF000000FFFFFF09
:1031D00000FF00FF00FFFFFFFFFFFF000000FF00F8
:1031E0000000FFFFFF00FF00FF00FFFFFFFFFFFFEA
:1031F000000000FF000000FFFFFF00FF00FF00FFD6
:10320000FFFFFFFFFF000000FF000000FFFFFF00C7
:10321000FF00FF00FFFFFFFFFFFF000000FF0000B7
:1032200000FFFFFF00FF00FF00FFFFFFFFFFFF00A9
:103230000000FF000000FFFFFF00FF00FF00FFFF96
:10324000FFFFFFFF000000FF000000FFFFFF00FF87
:1032500000FF00FFFFFFFFFFFF000000FF00000076
:10326000FFFFFF00FF00FF00FFFFFFFFFFFF000069
:1032700000FF000000FFFFFF00FF00FF00FFFFFF57
:10328000FFFFFF000000FF000000FFFFFF00FF0046
:10329000FF00FFFFFFFFFFFF000000FF000000FF37
:1032A000FFFF00FF00FF00FFFFFFFFFFFF00000028
:1032B000FF000000FFFFFF00FF00FF00FFFFFFFF18
:1032C000FFFF000000FF000000FFFFFF00FF00FF06
:1032D00000FFFFFFFFFFFF000000FF000000FFFFF7
:1032E000FF00FF00FF00FFFFFFFFFFFF000000FFE8
:1032F000000000FFFFFF00FF00FF00FFFFFFFFFFD8
:10330000FF000000FF000000FFFFFF00FF00FF00C4
:10331000FFFFFFFFFFFF000000FF000000FFFFFFB7
:1033200000FF00FF00FFFFFFFFFFFF000000FF00A6
:103330000000FFFFFF00FF00FF00FFFFFFFFFFFF98
:10334000000000FF000000FFFFFF00FF00FF00FF84
:10335000FFFFFFFFFF000000FF000000FFFFFF0076
:10336000FF00FF00FFFFFFFFFFFF000000FF000066
:1033700000FFFFFF00FF00FF00FFFFFFFFFFFF0058
:103380000000FF000000FFFFFF00FF00FF00FFFF45
:10339000FFFFFFFF000000FF000000FFFFFF00FF36
:1033A00000FF00FFFFFFFFFFFF000000FF00000025
:1033B000FFFFFF00FF00FF00FFFFFFFFFFFF000018
:1033C00000FF000000FFFFFF00FF00FF00FFFFFF06
:1033D000FFFFFF000000FF000000FFFFFF00FF00F5
:1033E000FF00FFFFFFFFFFFF000000FF000000FFE6
:1033F000FFFF00FF00FF00FFFFFFFFFFFF000000D7
:10340000FF000000FFFFFF00FF00FF00FFFFFFFFC6
:10341000FFFF000000FF000000FFFFFF00FF00FFB4
:1034200000FFFFFFFFFFFF000000FF000000FFFFA5
:10343000FF00FF00FF00FFFFFFFFFFFF000000FF96
:10344000000000FFFFFF00FF00FF00FFFFFFFFFF86
:10345000FF000000FF000000FFFFFF00FF00FF0073
:10346000FFFFFFFFFFFF000000FF000000FFFFFF66
:1034700000FF00FF00FFFFFFFFFFFF000000FF0055
:103480000000FFFFFF00FF00FF00FFFFFFFFFFFF47
:10349000000000FF000000FFFFFF00FF00FF00FF33
:1034A000FFFFFFFFFF000000FF000000FFFFFF0025
:1034B000FF00FF00FFFFFFFFFFFF000000FF000015
:1034C00000FFFFFF00FF00FF00FFFFFFFFFFFF0007
:1034D0000000FF000000FFFFFF00FF00FF00FFFFF4
:1034E000FFFFFFFF000000FF000000FFFFFF00FFE5
:1034F00000FF00FFFFFFFFFF3022030237F9900AB1
:10350000E2E0B4130040030238D0903511F82828C7
:103510007302354A0235600235860238D002359191
:103520000236200236360236430236820236A602C0
:1035300036BD0236DF02370102372702374E023727
:10354000750237960237AC0237BB302D030238D0F4
:103550003035030238D0E4900662F0A3F0D2442262
:10356000302D030238D03035030238D0B22EA22ECF
:10357000E43390035FF0D21F12AD88D240900689E9
:103580007451F002AB293035030238D0B22DD21F6E
:1035900022302D030238D0900192E0FFC3942750CF
:1035A0002AEFC394204024203521D205D235D20100
:1035B000900AF5EFF0900192742DF0C241C240E400
:1035C000900689F0900ACB741EF022EFB42D1630CD
:1035D0003513D247C235C20512AD88C241C240E49C
:1035E000900689F02290035C7420F0E0900192F044
:1035F00090035A7401F0C235C205C24712AD8890DB
:1036000006897451F0900AE5E090057EF0900AE397
:10361000E090057FF0900AE2E0900580F0D21F2252
:10362000302D030238D03035030238D0D217E49061
:103630000662F0A3F022302D030238D030350302A9
:1036400038D022302D030238D03035030238D090E4
:10365000035B7401F0E0900192F09001937406F026
:10366000E490035AF0900193E0FD900192E025E090
:10367000FFE433FE746A2FF58274033EF583EDF0A8
:10368000801A302D030238D03035030238D0900331
:1036900064E004F0E0D394044002E4F012AD8890BA
:1036A00006897451F022302D030238D030350302E0
:1036B00038D0B2003000030238D00238CC90035A20
:1036C000E060030238D0900192E025E0FFE433FE91
:1036D000746A2FF58274033EF583E0547FF02290E4
:1036E000035AE060030238D0900192E025E0FFE445
:1036F00033FE746A2FF58274033EF583E04480F054
:1037000022302D030238D03035030238D0E4900641
:1037100062F0A3F090035EE0640260030238D0D24E
:103720004590035D04F022302D030238D03035037C
:103730000238D0E4900662F0A3F090035EE06402E9
:1037400060030238D0D24590035D7402F022302D20
:10375000030238D03035030238D0E4900662F0A37B
:10376000F090035EE0640260030238D0D24590031B
:103770005D7403F022302D030238D0303503023857
:10378000D0E4900662F0A3F090035EE06401600371
:103790000238D0D24522302D030238D03035030212
:1037A00038D0E4900662F0A3F0D21E22302D03023E
:1037B00038D03035030238D0B24322302D030238DE
:1037C000D03035030238D030FD030238D0D23C7FF0
:1037D00001E4FE75F012EFA424AFF582E5F03401A8
:1037E000F583E5822EF582E43583F583E4F00EEE71
:1037F000B403E00FEFB40BD922900AE2E024FB609F
:103800002E24F96034146056146072147003023868
:10381000A61470030238B124FE70030238C12412CA
:1038200060030238D0E4900662F0A3F0C24422E4C0
:10383000900662F0A3F0C21722302D030238D03078
:1038400035030238D090035EE0B4021020464B30BE
:10385000454890035DE0FDE4FF12AB7F803C202DE6
:103860006F20356C90035EE0B4021020460D3045A9
:103870000A90035DE0FDE4FF12AB7F801D202D5018
:1038800020354D90035EE0B4021020460D30450A0D
:1038900090035DE0FDE4FF12AB7FC246C24512AD6E
:1038A00088C241D24022202D27203524C246C2455D
:1038B00022202D1C203519E4900662F0A3F0C21ED0
:1038C00022202D0C20350920FD06C23CD231D20128
:1038D0002290035EE07008900BE7E0FF12ABB73078
:1038E0002E04D20B8002C20B201603300568900A0A
:1038F000ECE004F0900ACBE0FF900AECE0C39F40BC
:1039000055E4F0900AE9E0600414F08012301606E5
:10391000C216D231D201300506900AE97401F09046
:103920000AE9E030E00D9001B574FFF0E4A3F0A3E4
:10393000F08023E4900B9CF0900B9CE0FFC3940379
:10394000501474B52FF582E43401F583E4F0900B44
:103950009CE004F080E2300B0B9001CD74FFF0E4AA
:10396000A3F0A3F090035EE07003023C159006B351
:10397000E0FF1313543FFEEF540314604E14700322
:10398000023A84147003023B6124036003023C9BEF
:1039900030FD1220FF0FE49001F2F09001F174FF6E
:1039A000F0E4023B0BE4900B9CF0900B9CE0FFC317
:1039B00094034003023C9B74F12FF582E43401F53B
:1039C00083E4F0900B9CE004F080DF30494D9006DA
:1039D00085E004F0E0C394235003023C9BE4F090A4
:1039E000034FE004F0E0FF30E003023C6BEFD394C0
:1039F0000A4002C249E4900B9CF0900B9CE0FFC38C
:103A000094034003023C9B74F12FF582E43401F5EA
:103A100083E4F0900B9CE004F080DF900685E004E6
:103A2000F0E0C3940A5003023C9BE4F090034FE0A3
:103A300004F0E030E028EE14601B14601B14601BDF
:103A400024036003023C9B9001F274FFF0E49001B8
:103A5000F1F0023B0B023B10023B1D023B2BE490BA
:103A60000B9CF0900B9CE0FFC394034003023C9B33
:103A700074F12FF582E43401F583E4F0900B9CE0BF
:103A800004F080DF30494D900685E004F0E0C394F7
:103A9000235003023C9BE4F090034FE004F0E0FF6E
:103AA00030E003023C6BEFD3940A4002C249E49039
:103AB0000B9CF0900B9CE0FFC394034003023C9BE3
:103AC00074F12FF582E43401F583E4F0900B9CE06F
:103AD00004F080DF900685E004F0E0C39419500301
:103AE000023C9BE4F090034FE004F0E030E04CEE49
:103AF00014601D14602714603224036003023C9B91
:103B00009001F274FFF0E49001F1F09001F3F022E3
:103B10009001F374FFF0E49001F2F080099001F25B
:103B200074FFF0A3F0E49001F1F0229001F174FF32
:103B3000F09001F3F0E49001F2F022E4900B9CF09D
:103B4000900B9CE0FFC394034003023C9B74F12F55
:103B5000F582E43401F583E4F0900B9CE004F080FE
:103B6000DF30FD2020FF03023C6BEE14600F146079
:103B70000E14600D24036003023C9B806C807780F0
:103B80007C023C07304951900685E004F0E0C39484
:103B9000235003023C9BE4F090034FE004F0E0FF6D
:103BA00030E003023C6BEFD3940A4002C249E49038
:103BB000034FF0900B9CF0900B9CE0FFC3940340EC
:103BC00003023C9B74F12FF582E43401F583E4F0A9
:103BD000900B9CE004F080DFEE14601A14601E1459
:103BE000602524036003023C9BE49001F1F0A37480
:103BF000FFF0E4A3F022E49001F1F08011E49001E1
:103C0000F1F0A374FF806C9001F174FFF0E4A3F075
:103C1000A374FFF02230064D900685E004F0E0C367
:103C200094234077E4F090034FE004F0E0FF30E0AD
:103C3000099001F174FFF0A38039EFD3940A400298
:103C4000C206E4900B9CF0900B9CE0FFC3940350E1
:103C50004A74F12FF582E43401F583E4F0900B9C73
:103C6000E004F080E230FD0F20FF0C9001F174FFC2
:103C7000F0E4A3F0A3F022E4900B9CF0900B9CE006
:103C8000FFC39403501574F12FF582E43401F583DA
:103C900074FFF0900B9CE004F080E122900193E02F
:103CA00064076003023E137FC012A5B275F003EFF4
:103CB000A424BFF582E5F03413F583E493900194D6
:103CC000F075F003EFA424C0F582E5F03413F5831A
:103CD000E493900001F075F003EF129D58E4900B0F
:103CE000A9F0900BA9E0FFC394064003023DF290B7
:103CF00006BFE075F006A4FEEF2E900BAAF0E09050
:103D0000B57C93F47003023DE99006BFE0FF900B91
:103D1000A9E0FE75F015A4247FF582E43417F5833D
:103D2000E5822FF582E43583F583E493FD900BACB7
:103D3000F0EE75F015A424FDF582E43417F583E563
:103D4000822FF582E43583F583E493FF900BADF089
:103D50001201D7EF6003023DE9900194E0FF900B60
:103D6000ACE0FE75F012A424ACF582E5F03401F568
:103D700083C083C082900BADE0FDD082D08375F00C
:103D800003127965EFF0900001E0FF75F012EEA4E8
:103D900024ADF582E5F03401F58375F003ED127979
:103DA00065EFF0900AF6E0FF900BACE0FE75F012C4
:103DB000A424AEF582E5F03401F583C083C082907F
:103DC0000BADE0FDD082D08375F003127965EFF082
:103DD00075F012EEA42418F582E5F03400F5837531
:103DE000F003ED1279657420F0900BA9E004F00265
:103DF0003CE230380C9006BFE0600314F022C23879
:103E0000229006BFE004F0E0D394145003023FFD7B
:103E1000023FF8900AEDE0FF75F0F8A42400F58267
:103E2000E5F034B8F583EF2583F583C083C0829035
:103E30000569E0FFD082D08375F015127965C083E3
:103E4000C082900193E0FED082D08375F003127996
:103E500065E493900194F0900AEDE0FD75F0F8A40C
:103E60002401F582E5F034B8F583ED2583F58375FB
:103E7000F015EF12796575F003EE127965E4939011
:103E80000001F0900AEDE0FF75F0F8A42402F5823D
:103E9000E5F034B8F583EF2583F583C083C08290C5
:103EA0000569E0D082D08375F015127965C083C0B2
:103EB00082900193E0D082D08375F003127965E49B
:103EC00093900AF6F0129D69E4900BA9F0900BA96B
:103ED000E0FFC394064003023FDD9006BFE075F0AB
:103EE00006A4FEEF2E900BAAF0E090B4FE93F470BF
:103EF00003023FD49006BFE0FF900BA9E0FE75F0EF
:103F000015A4247FF582E43417F583E5822FF5822A
:103F1000E43583F583E493FD900BACF0EE75F0157A
:103F2000A424FDF582E43417F583E5822FF582E4BD
:103F30003583F583E493FF900BADF01201D7EF606A
:103F400003023FD4900194E0FF900BACE0FE75F0CB
:103F500012A424ACF582E5F03401F583C083C0825D
:103F6000900BADE0FDD082D08375F003127965EF40
:103F7000F0900001E0FF75F012EEA424ADF582E5AB
:103F8000F03401F58375F003ED127965EFF0900AD6
:103F9000F6E0FF900BACE0FE75F012A424AEF582C3
:103FA000E5F03401F583C083C082900BADE0FDD015
:103FB00082D08375F003127965EFF075F012EEA4EC
:103FC0002418F582E5F03400F58375F003ED1279DD
:103FD000657420F0900BA9E004F0023ECD30380C5F
:103FE0009006BFE0600314F022C238229006BFE0C2
:103FF00004F0E0D3941440057414F0D23822E49015
:1040000003EEF09003EEE0FF249CF582E43406F525
:1040100083E0FE74CB2FF582E43405F583EEF09057
:1040200003EEE004F0E0B416DAC220E49003EEF010
:104030009003EEE0FF24CBF582E43405F583E0FE47
:10404000900B9FF074642FF582E43406F583E0FF53
:10405000EE6F900B9CF0E4A3F0900B9DE0FFC394F7
:10406000064003024342900B9CE020E00302432DF4
:104070009003EEE075F006A4FEEF2E900332F09070
:104080000AEAF0900B9FE020E0030241C690033261
:10409000E0644160030241BCD210203D030241AE06
:1040A000C23DE0FB75F004A42400F582E5F034D4B1
:1040B000F583127955E4900AE2EFF075F004EBA471
:1040C0002400F582E5F034D4F5831279557808128E
:1040D000792EE4900AE3EFF0900332E075F004A447
:1040E0002400F582E5F034D4F58312795578101266
:1040F000792EE4900AE4EFF075F004EBA42400F5C7
:1041000082E5F034D4F583127955781812792EE4CB
:10411000900AE5EFF0120D417F0312AB4712ACC6D7
:1041200090035EE070030241BC2034092018062091
:1041300036030241BCC234C236C218900BF274AAD4
:10414000F0A3741DF0A37402F0900570E0900BF5DD
:10415000F0900572E0900BF6F0900573E0900BF78D
:10416000F0900574E0900BF8F0900575E0900BF975
:10417000F0900576E0900BFAF0E4A3F0FF748A2F3C
:10418000F582E43406F583E0FE74FC2FF582E43416
:104190000BF583EEF00FEFB410E37F05900C0CE409
:1041A000F0A3DFFC900BF3E0FF128E30800E12A71D
:1041B0004C12AB29304B030243428033D22290058C
:1041C000B27481F08031C2229005B27401F0900384
:1041D00032E064417021900354E06004C23D8006E7
:1041E000C210D224D23D12A74C304B03024342D21C
:1041F00031120435024342C229E49006B4F0A3F020
:10420000900BD8F0A3F0900333F0A3F0900331E0CB
:10421000FFD394014015900AE6E0FEEF9E500CD2C9
:10422000497407F0E490034FF08008C249900AE611
:104230007403F0900AEDE064017068900332E0FBD3
:1042400075F004A42400F582E5F034D8F5831279E2
:1042500055E4900AE2EFF075F004EBA42400F58237
:10426000E5F034D8F583127955780812792EE49068
:104270000AE3EFF0900332E075F004A42400F58225
:10428000E5F034D8F583127955781012792EE49040
:104290000AE4EFF075F004EBA42400F582E5F034B5
:1042A000D8806C900AEDE07076900332E0FB75F0F8
:1042B00004A42400F582E5F034D4F583127955E4A2
:1042C000900AE2EFF075F004EBA42400F582E5F02B
:1042D00034D4F583127955780812792EE4900AE3E4
:1042E000EFF0900332E075F004A42400F582E5F0CD
:1042F00034D4F583127955781012792EE4900AE4BB
:10430000EFF075F004EBA42400F582E5F034D4F569
:1043100083127955781812792EE4900AE5EFF0129D
:104320000D4112A74C204B05D231120435900B9F42
:10433000E0C313F0900B9CE0C313F0A3E004F00281
:1043400040599003EEE004F0E0C39416500302409D
:104350003022E4900BA4F0202203024447FF900394
:1043600054E0FEEFC39E4003024439900AE2E0FEAF
:104370009407403E74812FF582E43405F583E0B55F
:10438000062974822FF582E43405F583E0FE7481FA
:104390002FF582E43405F583EEF0900AE2E0FE7436
:1043A000822FF582E43405F583EEF0900AE2E00214
:1043B000443174812FF582E43405F583E0FE900AE0
:1043C000E2E0FDEEB5053074822FF582E43405F5A8
:1043D00083E0FC74812FF582E43405F583ECF090E2
:1043E0000AE2E0FC74822FF582E43405F583ECF0F8
:1043F000900BA5ECF0803EED2420FDE433FCEEB5FF
:104400000533E4B5042F74822FF582E43405F58377
:10441000E0FE74812FF582E43405F583EEF0900A16
:10442000E2E02420FE74822FF582E43405F583EE69
:10443000F0900BA5F00F02435E74812FF582E434F7
:1044400005F583E4F08020301006900AE2E0801346
:10445000900AE2E0FFC394085005EF242080049006
:104460000AE2E0900BA5F0900BA5E0FF13131354A4
:104470001FFE247CF582E43406F583E0900BA3F064
:10448000EF540790AE2893FFF4FD2022659003546B
:10449000E004F0202415900BA5E0C39420900BA31A
:1044A000E050044DF080245FF08020201017C23DC2
:1044B000900BA5E0C39420900BA3E040044DF08046
:1044C0000A5FF08006900BA3E05FF0900BA3E0FF83
:1044D000900BA5E0FC747C2EF582E43406F583EFA6
:1044E000F0900354E02480F582E43405F583ECF089
:1044F0008008900354E0600214F0900BA3E05DFF8D
:104500006006A37401F08005E4900BA4F0900BA565
:10451000E0900BA3F0900AEDE0640160030245C453
:10452000900BA4E075F0C0A42410F582E5F034DA15
:10453000F583C083C082900BA3E0D082D08375F056
:1045400004127965127955E4900AE2EFF0900BA419
:10455000E075F0C0A42410F582E5F034DAF583C0EC
:1045600083C082900BA3E0D082D08375F0041279CF
:1045700065127955780812792EE4900AE3EFF090ED
:104580000BA4E075F0C0A42410F582E5F034DAF550
:1045900083C083C082900BA3E0D082D08375F004E7
:1045A000127965127955781012792EE4900AE4EFA9
:1045B000F0900BA4E075F0C0A42410F582E5F0346F
:1045C000DA02466E900AEDE0600302468F900BA47B
:1045D000E075F0C0A42410F582E5F034D6F583C070
:1045E00083C082900BA3E0D082D08375F00412794F
:1045F00065127955E4900AE2EFF0900BA4E075F0B3
:10460000C0A42410F582E5F034D6F583C083C082BF
:10461000900BA3E0D082D08375F0041279651279F3
:1046200055780812792EE4900AE3EFF0900BA4E09D
:1046300075F0C0A42410F582E5F034D6F583C0836C
:10464000C082900BA3E0D082D08375F0041279650C
:10465000127955781012792EE4900AE4EFF0900B5D
:10466000A4E075F0C0A42410F582E5F034D6F583FB
:10467000C083C082900BA3E0D082D08375F0041277
:104680007965127955781812792E900AE5EFF022A3
:10469000900BD1E0FD6401703F900BEB745CF0A3D4
:1046A00074F5F0900BE0E4F0A37412F0900BD5E0F9
:1046B000FE900BD4E0FBEBFF900BDEEEF0A3EFF0EF
:1046C000C39412EE94005005900BDE8003900BE033
:1046D000E0FEA3E0FF0249ABED6402703F900BEBFC
:1046E000745DF0A37407F0900BE0E4F0A3743BF06A
:1046F000900BD5E0FE900BD4E0FDEDFF900BDEEECD
:10470000F0A3EFF0C3943BEE94005005900BDE80D5
:1047100003900BE0E0FEA3E0FF0249AB900BD1E079
:10472000FD64036003024887900BD0E0FC703F906B
:104730000BEB745BF0A374CBF0900BE0E4F0A3748C
:1047400004F0900BD5E0FE900BD4E0FBEBFF900B58
:10475000DEEEF0A3EFF0C39404EE94005005900B4E
:10476000DE8003900BE0E0FEA3E0FF0249ABEC64C7
:1047700001703F900BEB745BF0A3749FF0900BE023
:10478000E4F0A37411F0900BD5E0FE900BD4E0FBA5
:10479000EBFF900BDEEEF0A3EFF0C39411EE94006C
:1047A0005005900BDE8003900BE0E0FEA3E0FF02DB
:1047B00049AB900BD0E0FC6402703F900BEB745D52
:1047C000F0A37454F0900BE0E4F0A37420F0900B8D
:1047D000D5E0FE900BD4E0FBEBFF900BDEEEF0A3F8
:1047E000EFF0C39420EE94005005900BDE80039010
:1047F0000BE0E0FEA3E0FF0249ABEC6403703F90E6
:104800000BEB745BF0A374B0F0900BE0E4F0A374D6
:104810000AF0900BD5E0FE900BD4E0FBEBFF900B81
:10482000DEEEF0A3EFF0C3940AEE94005005900B77
:10483000DE8003900BE0E0FEA3E0FF0249AB900BAB
:10484000D0E0F4703F900BEB745BF0A374BAF0907F
:104850000BE0E4F0A37411F0900BD5E0FE900BD4C4
:10486000E0FBEBFF900BDEEEF0A3EFF0C39411EE54
:1048700094005005900BDE8003900BE0E0FEA3E077
:10488000FF0249AB0249B7ED6422600302491C9064
:104890000BD2E0FD703F900BEB745BF0A374CFF094
:1048A000900BE0E4F0A37443F0900BD5E0FE900B86
:1048B000D4E0FBEBFF900BDEEEF0A3EFF0C39443EC
:1048C000EE94005005900BDE8003900BE0E0FEA319
:1048D000E0FF0249ABED6401703F900BEB745CF0BC
:1048E000A37412F0900BE0E4F0A374E3F0900BD506
:1048F000E0FE900BD4E0FDEDFF900BDEEEF0A3EFB9
:10490000F0C394E3EE94005005900BDE8003900B0F
:10491000E0E0FEA3E0FF0249AB0249B7900BD1E013
:10492000642160030249B7A3E0FD703E900BEB7475
:104930005DF0A37442F0900BE0E4F0A37409F090F2
:104940000BD5E0FE900BD4E0FBEBFF900BDEEEF01E
:10495000A3EFF0C39409EE94005005900BDE8003A2
:10496000900BE0E0FEA3E0FF8041ED640170469013
:104970000BEB745DF0A3744BF0900BE0E4F0A374C8
:1049800009F0900BD5E0FE900BD4E0FDEDFF900B0D
:10499000DEEEF0A3EFF0C39409EE94005005900B07
:1049A000DE8003900BE0E0FEA3E0FF900BE0EEF072
:1049B000A3EFF080058000020056C250129BB45352
:1049C00093FE43970422E4900BB8F0900B91E0041F
:1049D000F0900193E0FF64077003024A83900AEDB0
:1049E000E0FE75F0F8A42400F582E5F034B8F58314
:1049F000EE2583F583C083C082900569E0FED082F6
:104A0000D08375F01512796575F003EF127965E4BE
:104A100093900194F0900AEDE0FD75F0F8A4240164
:104A2000F582E5F034B8F583ED2583F58375F0154F
:104A3000EE12796575F003EF127965E49390000149
:104A4000F0900AEDE0FF75F0F8A42402F582E5F09D
:104A500034B8F583EF2583F583C083C08290056960
:104A6000E0D082D08375F015127965C083C0829042
:104A70000193E0D082D08375F003127965E49390BE
:104A80000AF6F0E4900BB4F0E4F5B112AE30AB07E7
:104A9000AA06900B91E02BFFE43AFE7C007D841285
:104AA00078ADAF05900BB7EDF0E0FF90177F9390D6
:104AB0000BB9F0C394154003024CBFE4F5B1EF907D
:104AC00017FD93900BBAF012AE30AA06AB077C002C
:104AD0007DC01278AD900BB7EDF0900BB9E0FF758B
:104AE000F012A42418F582E5F03400F583C083C0E9
:104AF00082900BBAE0FED082D08375F00312796504
:104B0000E06003024CBF74CD2FF582E4340AF583D4
:104B1000E0FD7C00A80674017E00088005C333CE4A
:104B200033CED8F9FFEE5CFEEF5D4E6003024CBF62
:104B3000900BB9E0FD75F012A42418F582E5F0346D
:104B400000F583C083C082900BBAE0FFD082D0838F
:104B500075F003127965E4F07B0112A70E900BBA91
:104B6000E0FF900BB9E0FD1201D7EF6003024CBFEC
:104B7000900193E064076003024BFF900BB5F09047
:104B80000BB5E0FFC394034003024CBF900BB7E0AA
:104B900075F003A424BFF582E5F03413F583E582B4
:104BA0002FF582E43583F583E493FF900AE8E090E3
:104BB000110893FEEF8EF0A4FFAEF07C007D1E1274
:104BC00078AD900BB5E0FE900BB9E075F012A4241F
:104BD000EFF582E5F03403F583C083C082900BBA11
:104BE000E0D082D08375F003127965E5822EF582DC
:104BF000E43583F583EFF0900BB5E004F08080900E
:104C00000AE8E090110893FF900194E08FF0A4FF70
:104C1000AEF07C007D1E1278AD900BB9E075F012FD
:104C2000A424EFF582E5F03403F583C083C08290BD
:104C30000BBAE0D082D08375F003127965EFF09063
:104C40000AE8E090110893FF900001E08FF0A4FFC4
:104C5000AEF07C007D1E1278AD900BB9E075F012BD
:104C6000A424F0F582E5F03403F583C083C082907C
:104C70000BBAE0D082D08375F003127965EFF09023
:104C80000AE8E090110893FF900AF6E08FF0A4FF85
:104C9000AEF07C007D1E1278AD900BB9E075F0127D
:104CA000A424F1F582E5F03403F583C083C082903B
:104CB0000BBAE0D082D08375F003127965EFF090E3
:104CC0000BB4E004F0E0C394055003024A8822309C
:104CD000580AC258900BAA7406F08008D258900B5C
:104CE000AA7403F0E4900BA8F0305808900BA97454
:104CF00003F08005E4900BA9F0900BAAE0FF900B65
:104D0000A9E0FEC39F4003024FBA900193E024F94B
:104D100050087003024E44024EF3900BA8E075F069
:104D200012A42418F582E5F03400F58375F003EE43
:104D3000127965E0FD7F6012AC56900BA8E0FE751D
:104D4000F012A42418F582E5F03400F583C083C086
:104D500082900BA9E0FDD082D08375F003127965B3
:104D6000EFF075F012EEA42418F582E5F03400F5AA
:104D70008375F003ED127965E09005B1F0900AEDCE
:104D8000E0FF75F0F8A42400F582E5F034B8F5836F
:104D9000EF2583F583C083C082900569E0FFD08250
:104DA000D08375F015127965C083C082900193E0BD
:104DB000FED082D08375F003127965E4939001945C
:104DC000F0900AEDE0FD75F0F8A42401F582E5F01D
:104DD00034B8F583ED2583F58375F015EF12796509
:104DE00075F003EE127965E493900001F0900AEDFE
:104DF000E0FF75F0F8A42402F582E5F034B8F583FD
:104E0000EF2583F583C083C082900569E0D082D00E
:104E10008375F015127965C083C082900193E0D04C
:104E200082D08375F003127965E493900AF6F090CE
:104E300005B1E09011E393FF7E007DFF7C00129DA1
:104E400078024EF3900BA8E075F012A42418F582B6
:104E5000E5F03400F583C083C082900BA9E0D082D6
:104E6000D08375F003127965E0FD7FC012AC5690D7
:104E70000BA8E0FE75F012A42418F582E5F03400CA
:104E8000F583C083C082900BA9E0FDD082D08375EA
:104E9000F003127965EFF075F012EEA42418F58294
:104EA000E5F03400F58375F003ED127965E0FF90CD
:104EB00005B1F0E0FE75F003A424BFF582E5F034FF
:104EC00013F583E493900194F075F003EEA424C0ED
:104ED000F582E5F03413F583E493900001F075F06A
:104EE00003EFA424C1F582E5F03413F583E4939035
:104EF0000AF6F0129D69900BA8E075F006A4FFA3D6
:104F0000E0FE2F90B4FE93F47003024FB1900BA813
:104F1000E0FFEE75F015A4247FF582E43417F583E5
:104F2000E5822FF582E43583F583E493FD900BACA5
:104F3000F0EE75F015A424FDF582E43417F583E551
:104F4000822FF582E43583F583E493FEFF1201D7C7
:104F5000EF705E900194E0FF900BACE0FD75F012F5
:104F6000A424ACF582E5F03401F58375F003EE126C
:104F70007965EFF0900001E0FF75F012EDA424AD2B
:104F8000F582E5F03401F58375F003EE127965EFF3
:104F9000F0900AF6E0FF900BACE075F012A424AE9E
:104FA000F582E5F03401F58375F003EE127965EFD3
:104FB000F0900BA9E004F0024CF9900BA8E004F08B
:104FC000E0C394155003024CE92230FD04C2FE8078
:104FD00002D2FE308D06900661E004F0308E06901D
:104FE000057BE004F090057BE0C39405403E90060D
:104FF00061E09405403690035EE0602DD21F7F1E75
:1050000012AB4712001E7F1E12AB47E490035EF006
:105010007F0112AB9B7F1E12AB477F0112AB9B122D
:10502000AAE6D206E490034FF00250E090057BE040
:10503000FFC39405404F900661E0FEEFD39E4043CE
:1050400090035EE07017D21F128F097F0112AB47E9
:1050500012820B7F1E12AB47E4FF12AB9B90035EE4
:10506000E06401601ED21F7F1E12AB4712001E7F3C
:105070001E12AB4790035E7401F053917FE4FDFF75
:1050800012AB7F805B900661E0FFC39405405A90AD
:10509000057BE0FEEFD39E404790035EE07017D2A1
:1050A0001F128F097F0212AB4712820B7F1E12ABB9
:1050B00047E4FF12AB9B90035EE064026022D21FC4
:1050C0007F1E12AB4712001E7F1E12AB4790035E7D
:1050D0007402F053917F90035DE0FDE4FF12AB7F1B
:1050E000E4900661F090057BF022900BF274AAF038
:1050F000A37401F0A37409F0900BF3E0FF028E306B
:1051000000000000000000002025030252D9C22543
:1051100053A9FE90056DE075F080A4FFAEF0900BF2
:105120009DEEF0A3EFF02400FFEE34DCFEC394DC30
:105130004015EE94DE5010900B9B74DCF0A3E4F06D
:105140002FFFEE3424806AC3EE94DE4015EE94E027
:105150005010900B9B74DEF0A3E4F02FFFEE34228E
:10516000804FC3EE94E04015EE94E25010900B9BFC
:1051700074E0F0A3E4F02FFFEE34208034C3EE940B
:10518000E24015EE94E45010900B9B74E2F0A3E41F
:10519000F02FFFEE341E8019C3EE94E44024EE9409
:1051A000E6501F900B9B74E4F0A3E4F02FFFEE3465
:1051B0001C900B9FF0A3EFF0900B9BE0C313900BA0
:1051C000A3F0E4900BA1F0A3F0900BA1E0FEA3E00C
:1051D000FF900B9CE02FFD900B9BE03E8D82F583B2
:1051E000E493FD74C32FF58274063EF583EDF090D1
:1051F0000BA2E004F07006900BA1E004F0900BA16C
:10520000E0B402C5A3E0B400C0E4900BA1F0A3F0A9
:10521000900BA1E0FEA3E0FFC39480EE9400503C0D
:1052200074E12FF58274053EF583E0FF900BA1E059
:10523000FCA3E0FD900BA0E02DFD900B9FE03CFC5B
:1052400074C32DF58274063CF583EFF0900BA2E059
:1052500004F070BC900BA1E004F080B4A2AF9255B2
:10526000C2AF900BA3E0FF12AAA07B017A0679C31C
:10527000900B9BE0FCA3E0FD900BC87402F0A3E44C
:10528000F0129DD6A25592AFE4900BA1F0A3F0903E
:105290000BA1E0FEA3E0FF900B9CE02FFD900B9B89
:1052A000E03E8D82F583E493FD74C32FF58274068E
:1052B0003EF583E0B505A5900BA2E004F0700690E2
:1052C0000BA1E004F0900BA1E0B402C3A3E0B40092
:1052D000BEC20512AD8843A9012047030253ECC2A8
:1052E0004753A9FE900AEDE060030253EC900AF5E3
:1052F000E0FDB4200B900B9D7401F0A3747A800A3A
:10530000EDB4210EE4900B9DF0A3F0900B9B74BCC8
:105310008041900AF5E0FDB42211900B9D7401F0DC
:10532000A3747AF0900B9B74BE8028EDB4230EE436
:10533000900B9DF0A3F0900B9B74BE8016900AF525
:10534000E0B4241D900B9D7401F0A3747AF0900BCF
:105350009B74C2F0A3E4F0900B9BE0C313900BA3EB
:10536000F0A2AF9255C2AF900BA3E0FF12AAA0909B
:105370000BA3E004FF12AAA07B017A0679C3900B6D
:105380009BE0FCA3E0FD900BC87404F0A3E4F012D2
:105390009DD6A25592AFE4900BA1F0A3F0900BA183
:1053A000E0FEA3E0FF900B9CE02FFD900B9BE03E06
:1053B0008D82F583E493FD74C32FF58274063EF568
:1053C00083E0B5059C900BA2E004F07006900BA161
:1053D000E004F0900BA1E0B404C3A3E0B400BE432A
:1053E000A901C205900AF5E0900192F022900BAE5F
:1053F0007401F0305808C258A37406F08008D258DF
:10540000900BAF7403F0E4900BACF0305808900BA5
:10541000AD7403F08005E4900BADF0900BAFE0FFAE
:10542000900BADE0FEC39F4003025687A3E0FFA8A8
:1054300006088002C333D8FCFF900BACE024CDF506
:1054400082E4340AF583E05F600302567E900BAC81
:10545000E0FF75F012A424AEF582E5F03401F58387
:10546000C083C082900BADE0FED082D08375F00384
:10547000127965E0900B11F075F012EFA424ADF5F0
:1054800082E5F03401F58375F003EE127965E09062
:105490000B0FF0900BACE0FF75F012A424ACF5827A
:1054A000E5F03401F583C083C082900BADE0FED0FF
:1054B00082D08375F003127965E0900B0EF075F0E1
:1054C00012EFA42418F582E5F03400F58375F0039B
:1054D000EE127965E0FD900B11E08DF0A4AEF0784E
:1054E00005CEC313CE13D8F9900B11F0900B0FE03B
:1054F0008DF0A4AEF07805CEC313CE13D8F9900B7F
:105500000FF0900BACE075F012A42418F582E5F0D2
:105510003400F583C083C082900BADE0FDD082D013
:105520008375F003127965E0FF900B0EE08FF0A415
:10553000AEF07805CEC313CE13D8F9900B0EF0AFB2
:1055400005900BACE0FD1201D7EF7075900B11E0E8
:10555000FF900BACE0FE75F012A424AEF582E5F0EE
:105560003401F583C083C082900BADE0FDD082D0C2
:105570008375F003127965EFF0900B0FE0FF75F083
:1055800012EEA424ADF582E5F03401F58375F00345
:10559000ED127965EFF0900B0EE0FF900BACE0752B
:1055A000F012A424ACF582E5F03401F583C083C089
:1055B00082900BADE0D082D08375F003127965EF55
:1055C000F0900569E0640D7070900BACE0FF75F031
:1055D00012A42418F582E5F03400F583C083C0825C
:1055E000900BADE0FED082D08375F003127965E0B8
:1055F000D39401401C75F012EFA42418F582E5F055
:105600003400F58375F003EE127965E024FEF08036
:105610006D900BACE075F012A42418F582E5F0341F
:1056200000F583C083C082900BADE0D082D083753B
:10563000F003127965E4F08045900BACE0FF75F063
:1056400012A42418F582E5F03400F583C083C082EB
:10565000900BADE0FED082D08375F003127965E047
:10566000D39400401975F012EFA42418F582E5F0E8
:105670003400F58375F003EE127965E014F0900BB9
:10568000ADE004F002541B900BACE004F0E0C394D6
:1056900015500302540B22900BB67401F0305808D9
:1056A000C258A37406F08008D258900BB77403F068
:1056B000E4900BB4F0305808900BB57403F08005FB
:1056C000E4900BB5F0900BB7E0FF900BB5E0C39FF3
:1056D0004003025930900BB4E0FF75F012A424F19E
:1056E000F582E5F03403F583C083C082900BB5E00A
:1056F000FED082D08375F003127965E0900B11F033
:1057000075F012EFA424F0F582E5F03403F583750B
:10571000F003EE127965E0900B0FF0900BB4E0FF10
:1057200075F012A424EFF582E5F03403F583C0830D
:10573000C082900BB5E0FED082D08375F003127961
:1057400065E0900B0EF075F012EFA42418F582E5D9
:10575000F03400F58375F003EE127965E0FD900BEF
:1057600011E08DF0A4AEF07805CEC313CE13D8F9B6
:10577000900B11F0900B0FE08DF0A4AEF07805CEF9
:10578000C313CE13D8F9900B0FF0900BB4E075F063
:1057900012A42418F582E5F03400F583C083C0829A
:1057A000900BB5E0FDD082D08375F003127965E0EF
:1057B000FF900B0EE08FF0A4AEF07805CEC313CEB1
:1057C00013D8F9900B0EF0AF05900BB4E0FD120169
:1057D000D7EF7075900B11E0FF900BB4E0FE75F001
:1057E00012A424AEF582E5F03401F583C083C082B3
:1057F000900BB5E0FDD082D08375F003127965EF90
:10580000F0900B0FE0FF75F012EEA424ADF582E5E9
:10581000F03401F58375F003ED127965EFF0900B2C
:105820000EE0FF900BB4E075F012A424ACF582E515
:10583000F03401F583C083C082900BB5E0D082D0F4
:105840008375F003127965EFF0900BB5E0FFA3E0EC
:10585000FEA807088002C333D8FCFE900BB4E024F6
:10586000CDF582E4340AF583E05E6076900BB4E017
:10587000FD75F012A42418F582E5F03400F583C01C
:1058800083C082900BB5E0FCD082D08375F0031208
:105890007965E004F075F012EDA42418F582E5F0C6
:1058A0003400F58375F003EC127965E0D394204061
:1058B00076900BB4E0FD75F012A42418F582E5F0A3
:1058C0003400F58375F003EF1279657420F074CD20
:1058D0002DF582E4340AF583E0FFEEF4FEEF5EF08E
:1058E0008045900BB4E0FF75F012A42418F582E512
:1058F000F03400F583C083C082900BB5E0FED08207
:10590000D08375F003127965E0D39400401975F0E7
:1059100012EFA42418F582E5F03400F58375F00346
:10592000EE127965E014F0900BB5E004F00256C574
:10593000900BB4E004F0E0C3941550030256B52276
:10594000900BA8EFF0E4900BAEF0C203900569E075
:105950006401600A7FC012A5B2900BAEEFF0E49034
:105960000BA9F0900BA8E0FFA3E0C39F4003025BEC
:105970009E900193E0FF64077049900BAEE0FE75C6
:10598000F003A424BFF582E5F03413F583E493908B
:105990000194F075F003EEA424C0F582E5F0341311
:1059A000F583E493900001F0900BAEE075F003A452
:1059B00024C1F582E5F03413F583E493900AF6F000
:1059C000025A69900AEDE0FE75F0F8A42400F58211
:1059D000E5F034B8F583EE2583F583C083C082906B
:1059E0000569E0FED082D08375F01512796575F0F7
:1059F00003EF127965E493900194F0900AEDE0FDD5
:105A000075F0F8A42401F582E5F034B8F583ED25AE
:105A100083F58375F015EE12796575F003EF127951
:105A200065E493900001F0900AEDE0FF75F0F8A4B2
:105A30002402F582E5F034B8F583EF2583F583C0C1
:105A400083C082900569E0D082D08375F015127909
:105A500065C083C082900193E0D082D08375F0034B
:105A6000127965E493900AF6F0129D69900BAEE00E
:105A7000240DF0E0C394C04004E02440F0E4FC9026
:105A80000BA9E0FF75F00AA4242AF582E43411F58D
:105A900083E5822CF582E43583F583E493F4700387
:105AA000025B8CEF75F00AA4242AF582E43411F528
:105AB00083E5822CF582E43583F583E493FE540775
:105AC000900BADF0EE131313541F900BACF0E0FFEE
:105AD000A3E0FE75F015A4247FF582E43417F58366
